{
  "contractName": "CryptoPanda",
  "abi": [
    {
      "inputs": [
        {
          "internalType": "string",
          "name": "_contractName",
          "type": "string"
        },
        {
          "internalType": "string",
          "name": "_contractSymbol",
          "type": "string"
        },
        {
          "internalType": "uint256",
          "name": "_nftMintPrice",
          "type": "uint256"
        },
        {
          "internalType": "uint256",
          "name": "_whiteListPrice",
          "type": "uint256"
        },
        {
          "internalType": "uint256",
          "name": "_royality",
          "type": "uint256"
        }
      ],
      "stateMutability": "nonpayable",
      "type": "constructor"
    },
    {
      "anonymous": false,
      "inputs": [
        {
          "indexed": true,
          "internalType": "address",
          "name": "owner",
          "type": "address"
        },
        {
          "indexed": true,
          "internalType": "address",
          "name": "approved",
          "type": "address"
        },
        {
          "indexed": true,
          "internalType": "uint256",
          "name": "tokenId",
          "type": "uint256"
        }
      ],
      "name": "Approval",
      "type": "event"
    },
    {
      "anonymous": false,
      "inputs": [
        {
          "indexed": true,
          "internalType": "address",
          "name": "owner",
          "type": "address"
        },
        {
          "indexed": true,
          "internalType": "address",
          "name": "operator",
          "type": "address"
        },
        {
          "indexed": false,
          "internalType": "bool",
          "name": "approved",
          "type": "bool"
        }
      ],
      "name": "ApprovalForAll",
      "type": "event"
    },
    {
      "anonymous": false,
      "inputs": [
        {
          "indexed": true,
          "internalType": "address",
          "name": "previousOwner",
          "type": "address"
        },
        {
          "indexed": true,
          "internalType": "address",
          "name": "newOwner",
          "type": "address"
        }
      ],
      "name": "OwnershipTransferred",
      "type": "event"
    },
    {
      "anonymous": false,
      "inputs": [
        {
          "indexed": true,
          "internalType": "uint256",
          "name": "tokenId",
          "type": "uint256"
        },
        {
          "indexed": false,
          "internalType": "address",
          "name": "owner",
          "type": "address"
        }
      ],
      "name": "TokenMinted",
      "type": "event"
    },
    {
      "anonymous": false,
      "inputs": [
        {
          "indexed": true,
          "internalType": "address",
          "name": "from",
          "type": "address"
        },
        {
          "indexed": true,
          "internalType": "address",
          "name": "to",
          "type": "address"
        },
        {
          "indexed": true,
          "internalType": "uint256",
          "name": "tokenId",
          "type": "uint256"
        }
      ],
      "name": "Transfer",
      "type": "event"
    },
    {
      "anonymous": false,
      "inputs": [
        {
          "indexed": false,
          "internalType": "bool",
          "name": "payment_Sent",
          "type": "bool"
        }
      ],
      "name": "payment_Sent",
      "type": "event"
    },
    {
      "anonymous": false,
      "inputs": [
        {
          "indexed": false,
          "internalType": "uint256",
          "name": "ID",
          "type": "uint256"
        },
        {
          "indexed": false,
          "internalType": "bool",
          "name": "price_is_set",
          "type": "bool"
        }
      ],
      "name": "priceSetEvent",
      "type": "event"
    },
    {
      "inputs": [
        {
          "internalType": "uint256",
          "name": "",
          "type": "uint256"
        }
      ],
      "name": "NFT_Price_List",
      "outputs": [
        {
          "internalType": "uint256",
          "name": "",
          "type": "uint256"
        }
      ],
      "stateMutability": "view",
      "type": "function"
    },
    {
      "inputs": [],
      "name": "_mintPrice",
      "outputs": [
        {
          "internalType": "uint256",
          "name": "",
          "type": "uint256"
        }
      ],
      "stateMutability": "view",
      "type": "function"
    },
    {
      "inputs": [],
      "name": "_tokenIdCounter",
      "outputs": [
        {
          "internalType": "uint256",
          "name": "_value",
          "type": "uint256"
        }
      ],
      "stateMutability": "view",
      "type": "function"
    },
    {
      "inputs": [],
      "name": "_whitelist_mintPrice",
      "outputs": [
        {
          "internalType": "uint256",
          "name": "",
          "type": "uint256"
        }
      ],
      "stateMutability": "view",
      "type": "function"
    },
    {
      "inputs": [
        {
          "internalType": "address",
          "name": "to",
          "type": "address"
        },
        {
          "internalType": "uint256",
          "name": "tokenId",
          "type": "uint256"
        }
      ],
      "name": "approve",
      "outputs": [],
      "stateMutability": "nonpayable",
      "type": "function"
    },
    {
      "inputs": [
        {
          "internalType": "address",
          "name": "owner",
          "type": "address"
        }
      ],
      "name": "balanceOf",
      "outputs": [
        {
          "internalType": "uint256",
          "name": "",
          "type": "uint256"
        }
      ],
      "stateMutability": "view",
      "type": "function"
    },
    {
      "inputs": [
        {
          "internalType": "uint256",
          "name": "tokenId",
          "type": "uint256"
        }
      ],
      "name": "burn",
      "outputs": [],
      "stateMutability": "nonpayable",
      "type": "function"
    },
    {
      "inputs": [
        {
          "internalType": "uint256",
          "name": "tokenId",
          "type": "uint256"
        }
      ],
      "name": "getApproved",
      "outputs": [
        {
          "internalType": "address",
          "name": "",
          "type": "address"
        }
      ],
      "stateMutability": "view",
      "type": "function"
    },
    {
      "inputs": [
        {
          "internalType": "address",
          "name": "owner",
          "type": "address"
        },
        {
          "internalType": "address",
          "name": "operator",
          "type": "address"
        }
      ],
      "name": "isApprovedForAll",
      "outputs": [
        {
          "internalType": "bool",
          "name": "",
          "type": "bool"
        }
      ],
      "stateMutability": "view",
      "type": "function"
    },
    {
      "inputs": [],
      "name": "maxSupply",
      "outputs": [
        {
          "internalType": "uint256",
          "name": "",
          "type": "uint256"
        }
      ],
      "stateMutability": "view",
      "type": "function"
    },
    {
      "inputs": [],
      "name": "name",
      "outputs": [
        {
          "internalType": "string",
          "name": "",
          "type": "string"
        }
      ],
      "stateMutability": "view",
      "type": "function"
    },
    {
      "inputs": [],
      "name": "owner",
      "outputs": [
        {
          "internalType": "address",
          "name": "",
          "type": "address"
        }
      ],
      "stateMutability": "view",
      "type": "function"
    },
    {
      "inputs": [
        {
          "internalType": "uint256",
          "name": "tokenId",
          "type": "uint256"
        }
      ],
      "name": "ownerOf",
      "outputs": [
        {
          "internalType": "address",
          "name": "",
          "type": "address"
        }
      ],
      "stateMutability": "view",
      "type": "function"
    },
    {
      "inputs": [
        {
          "internalType": "uint256",
          "name": "",
          "type": "uint256"
        }
      ],
      "name": "pandaList",
      "outputs": [
        {
          "internalType": "uint256",
          "name": "id",
          "type": "uint256"
        },
        {
          "internalType": "string",
          "name": "uri",
          "type": "string"
        },
        {
          "internalType": "uint256",
          "name": "price",
          "type": "uint256"
        },
        {
          "internalType": "address",
          "name": "owner",
          "type": "address"
        },
        {
          "internalType": "uint256",
          "name": "mintTime",
          "type": "uint256"
        },
        {
          "internalType": "bool",
          "name": "preSale",
          "type": "bool"
        }
      ],
      "stateMutability": "view",
      "type": "function"
    },
    {
      "inputs": [],
      "name": "renounceOwnership",
      "outputs": [],
      "stateMutability": "nonpayable",
      "type": "function"
    },
    {
      "inputs": [
        {
          "internalType": "address",
          "name": "from",
          "type": "address"
        },
        {
          "internalType": "address",
          "name": "to",
          "type": "address"
        },
        {
          "internalType": "uint256",
          "name": "tokenId",
          "type": "uint256"
        }
      ],
      "name": "safeTransferFrom",
      "outputs": [],
      "stateMutability": "nonpayable",
      "type": "function"
    },
    {
      "inputs": [
        {
          "internalType": "address",
          "name": "from",
          "type": "address"
        },
        {
          "internalType": "address",
          "name": "to",
          "type": "address"
        },
        {
          "internalType": "uint256",
          "name": "tokenId",
          "type": "uint256"
        },
        {
          "internalType": "bytes",
          "name": "_data",
          "type": "bytes"
        }
      ],
      "name": "safeTransferFrom",
      "outputs": [],
      "stateMutability": "nonpayable",
      "type": "function"
    },
    {
      "inputs": [
        {
          "internalType": "address",
          "name": "operator",
          "type": "address"
        },
        {
          "internalType": "bool",
          "name": "approved",
          "type": "bool"
        }
      ],
      "name": "setApprovalForAll",
      "outputs": [],
      "stateMutability": "nonpayable",
      "type": "function"
    },
    {
      "inputs": [
        {
          "internalType": "bytes4",
          "name": "interfaceId",
          "type": "bytes4"
        }
      ],
      "name": "supportsInterface",
      "outputs": [
        {
          "internalType": "bool",
          "name": "",
          "type": "bool"
        }
      ],
      "stateMutability": "view",
      "type": "function"
    },
    {
      "inputs": [],
      "name": "symbol",
      "outputs": [
        {
          "internalType": "string",
          "name": "",
          "type": "string"
        }
      ],
      "stateMutability": "view",
      "type": "function"
    },
    {
      "inputs": [
        {
          "internalType": "address",
          "name": "from",
          "type": "address"
        },
        {
          "internalType": "address",
          "name": "to",
          "type": "address"
        },
        {
          "internalType": "uint256",
          "name": "tokenId",
          "type": "uint256"
        }
      ],
      "name": "transferFrom",
      "outputs": [],
      "stateMutability": "nonpayable",
      "type": "function"
    },
    {
      "inputs": [
        {
          "internalType": "address",
          "name": "newOwner",
          "type": "address"
        }
      ],
      "name": "transferOwnership",
      "outputs": [],
      "stateMutability": "nonpayable",
      "type": "function"
    },
    {
      "inputs": [
        {
          "internalType": "string",
          "name": "temp",
          "type": "string"
        }
      ],
      "name": "setLegendaryPandaURI",
      "outputs": [],
      "stateMutability": "nonpayable",
      "type": "function"
    },
    {
      "inputs": [
        {
          "internalType": "bool",
          "name": "_t",
          "type": "bool"
        }
      ],
      "name": "setPreSaleStatus",
      "outputs": [],
      "stateMutability": "nonpayable",
      "type": "function"
    },
    {
      "inputs": [],
      "name": "getContractBalance",
      "outputs": [
        {
          "internalType": "uint256",
          "name": "",
          "type": "uint256"
        }
      ],
      "stateMutability": "view",
      "type": "function"
    },
    {
      "inputs": [
        {
          "internalType": "address",
          "name": "_admin",
          "type": "address"
        }
      ],
      "name": "setAdmin",
      "outputs": [],
      "stateMutability": "nonpayable",
      "type": "function"
    },
    {
      "inputs": [],
      "name": "getAdmin",
      "outputs": [
        {
          "internalType": "address",
          "name": "",
          "type": "address"
        }
      ],
      "stateMutability": "view",
      "type": "function"
    },
    {
      "inputs": [],
      "name": "getRoyaltyValue",
      "outputs": [
        {
          "internalType": "uint256",
          "name": "",
          "type": "uint256"
        }
      ],
      "stateMutability": "view",
      "type": "function"
    },
    {
      "inputs": [],
      "name": "getMintedList",
      "outputs": [
        {
          "internalType": "uint256[]",
          "name": "minted_nft_ids",
          "type": "uint256[]"
        }
      ],
      "stateMutability": "view",
      "type": "function"
    },
    {
      "inputs": [
        {
          "internalType": "address",
          "name": "id",
          "type": "address"
        }
      ],
      "name": "addWhiteList",
      "outputs": [],
      "stateMutability": "nonpayable",
      "type": "function"
    },
    {
      "inputs": [
        {
          "internalType": "address",
          "name": "id",
          "type": "address"
        }
      ],
      "name": "removeWhiteList",
      "outputs": [],
      "stateMutability": "nonpayable",
      "type": "function"
    },
    {
      "inputs": [
        {
          "internalType": "address",
          "name": "_to",
          "type": "address"
        }
      ],
      "name": "sendContractBalance",
      "outputs": [],
      "stateMutability": "nonpayable",
      "type": "function"
    },
    {
      "inputs": [
        {
          "internalType": "uint256",
          "name": "_tokenId",
          "type": "uint256"
        },
        {
          "internalType": "uint256",
          "name": "_price",
          "type": "uint256"
        }
      ],
      "name": "setNFTprice",
      "outputs": [],
      "stateMutability": "nonpayable",
      "type": "function"
    },
    {
      "inputs": [
        {
          "internalType": "uint256",
          "name": "_tokenId",
          "type": "uint256"
        }
      ],
      "name": "getNFTprice",
      "outputs": [
        {
          "internalType": "uint256",
          "name": "",
          "type": "uint256"
        }
      ],
      "stateMutability": "view",
      "type": "function"
    },
    {
      "inputs": [
        {
          "internalType": "uint256",
          "name": "tokenId",
          "type": "uint256"
        }
      ],
      "name": "setTokenURI",
      "outputs": [],
      "stateMutability": "nonpayable",
      "type": "function"
    },
    {
      "inputs": [
        {
          "internalType": "uint256[]",
          "name": "tokenIds",
          "type": "uint256[]"
        }
      ],
      "name": "setTokensURI",
      "outputs": [],
      "stateMutability": "nonpayable",
      "type": "function"
    },
    {
      "inputs": [
        {
          "internalType": "string[]",
          "name": "tokenUriList",
          "type": "string[]"
        }
      ],
      "name": "batchMint",
      "outputs": [
        {
          "internalType": "uint256[]",
          "name": "",
          "type": "uint256[]"
        }
      ],
      "stateMutability": "payable",
      "type": "function"
    },
    {
      "inputs": [
        {
          "internalType": "uint256",
          "name": "tokenId",
          "type": "uint256"
        }
      ],
      "name": "tokenURI",
      "outputs": [
        {
          "internalType": "string",
          "name": "",
          "type": "string"
        }
      ],
      "stateMutability": "view",
      "type": "function"
    }
  ],
  "bytecode": "0x60806040523480156200001157600080fd5b50604051620064ce380380620064ce833981810160405281019062000037919062000573565b84848160009080519060200190620000519291906200042e565b5080600190805190602001906200006a9291906200042e565b5050506200008d620000816200017560201b60201c565b6200017d60201b60201c565b30600b60006101000a81548173ffffffffffffffffffffffffffffffffffffffff021916908373ffffffffffffffffffffffffffffffffffffffff16021790555082600e8190555081600f81905550806010819055506000600b60156101000a81548160ff021916908315150217905550611f48600d819055506040518060800160405280605281526020016200647c6052913960099080519060200190620001389291906200042e565b50620001596200014d6200024360201b60201c565b6200026d60201b60201c565b6200016a336200034060201b60201c565b5050505050620008d6565b600033905090565b6000600760009054906101000a900473ffffffffffffffffffffffffffffffffffffffff16905081600760006101000a81548173ffffffffffffffffffffffffffffffffffffffff021916908373ffffffffffffffffffffffffffffffffffffffff1602179055508173ffffffffffffffffffffffffffffffffffffffff168173ffffffffffffffffffffffffffffffffffffffff167f8be0079c531659141344cd1fd0a4f28419497f9722a3daafe3b4186f6b6457e060405160405180910390a35050565b6000600760009054906101000a900473ffffffffffffffffffffffffffffffffffffffff16905090565b6200027d6200017560201b60201c565b73ffffffffffffffffffffffffffffffffffffffff16620002a36200024360201b60201c565b73ffffffffffffffffffffffffffffffffffffffff1614620002fc576040517f08c379a0000000000000000000000000000000000000000000000000000000008152600401620002f39062000687565b60405180910390fd5b80600a60006101000a81548173ffffffffffffffffffffffffffffffffffffffff021916908373ffffffffffffffffffffffffffffffffffffffff16021790555050565b600a60009054906101000a900473ffffffffffffffffffffffffffffffffffffffff1673ffffffffffffffffffffffffffffffffffffffff163373ffffffffffffffffffffffffffffffffffffffff1614620003d3576040517f08c379a0000000000000000000000000000000000000000000000000000000008152600401620003ca90620006a9565b60405180910390fd5b6001601560008373ffffffffffffffffffffffffffffffffffffffff1673ffffffffffffffffffffffffffffffffffffffff16815260200190815260200160002060006101000a81548160ff02191690831515021790555050565b8280546200043c906200077b565b90600052602060002090601f016020900481019282620004605760008555620004ac565b82601f106200047b57805160ff1916838001178555620004ac565b82800160010185558215620004ac579182015b82811115620004ab5782518255916020019190600101906200048e565b5b509050620004bb9190620004bf565b5090565b5b80821115620004da576000816000905550600101620004c0565b5090565b6000620004f5620004ef84620006f4565b620006cb565b9050828152602081018484840111156200051457620005136200084a565b5b6200052184828562000745565b509392505050565b600082601f83011262000541576200054062000845565b5b815162000553848260208601620004de565b91505092915050565b6000815190506200056d81620008bc565b92915050565b600080600080600060a0868803121562000592576200059162000854565b5b600086015167ffffffffffffffff811115620005b357620005b26200084f565b5b620005c18882890162000529565b955050602086015167ffffffffffffffff811115620005e557620005e46200084f565b5b620005f38882890162000529565b945050604062000606888289016200055c565b935050606062000619888289016200055c565b92505060806200062c888289016200055c565b9150509295509295909350565b6000620006486020836200072a565b915062000655826200086a565b602082019050919050565b60006200066f600c836200072a565b91506200067c8262000893565b602082019050919050565b60006020820190508181036000830152620006a28162000639565b9050919050565b60006020820190508181036000830152620006c48162000660565b9050919050565b6000620006d7620006ea565b9050620006e58282620007b1565b919050565b6000604051905090565b600067ffffffffffffffff82111562000712576200071162000816565b5b6200071d8262000859565b9050602081019050919050565b600082825260208201905092915050565b6000819050919050565b60005b838110156200076557808201518184015260208101905062000748565b8381111562000775576000848401525b50505050565b600060028204905060018216806200079457607f821691505b60208210811415620007ab57620007aa620007e7565b5b50919050565b620007bc8262000859565b810181811067ffffffffffffffff82111715620007de57620007dd62000816565b5b80604052505050565b7f4e487b7100000000000000000000000000000000000000000000000000000000600052602260045260246000fd5b7f4e487b7100000000000000000000000000000000000000000000000000000000600052604160045260246000fd5b600080fd5b600080fd5b600080fd5b600080fd5b6000601f19601f8301169050919050565b7f4f776e61626c653a2063616c6c6572206973206e6f7420746865206f776e6572600082015250565b7f4e6f7420616e2041646d696e0000000000000000000000000000000000000000600082015250565b620008c7816200073b565b8114620008d357600080fd5b50565b615b9680620008e66000396000f3fe6080604052600436106102255760003560e01c806370a0823111610123578063a80029ff116100ab578063c8dc33a41161006f578063c8dc33a414610821578063d5abeb011461084a578063e7cd4a0414610875578063e985e9c51461089e578063f2fde38b146108db57610225565b8063a80029ff1461073e578063b88d4fde14610767578063bff2612614610790578063c5089500146107b9578063c87b56dd146107e457610225565b806384c4bd4b116100f257806384c4bd4b146106575780638da5cb5b1461068257806395d89b41146106ad57806396591099146106d8578063a22cb4651461071557610225565b806370a08231146105ad578063715018a6146105ea57806373e1f844146106015780637f4fa39b1461062c57610225565b806323b872dd116101b15780636352211e116101755780636352211e146104c85780636bbc4d81146105055780636e9960c31461052e5780636f9fb98a14610559578063704b6c021461058457610225565b806323b872dd146103f457806342842e0e1461041d57806342966c68146104465780635bcdf2071461046f5780635e326b921461049f57610225565b8063081812fc116101f8578063081812fc146102fa578063095ea7b3146103375780631ae4d063146103605780632003c7d2146103a25780632042e5c2146103cb57610225565b806301ffc9a71461022a57806303075028146102675780630387da42146102a457806306fdde03146102cf575b600080fd5b34801561023657600080fd5b50610251600480360381019061024c91906141ac565b610904565b60405161025e91906149a6565b60405180910390f35b34801561027357600080fd5b5061028e6004803603810190610289919061424f565b6109e6565b60405161029b9190614da3565b60405180910390f35b3480156102b057600080fd5b506102b96109fe565b6040516102c69190614da3565b60405180910390f35b3480156102db57600080fd5b506102e4610a04565b6040516102f191906149c1565b60405180910390f35b34801561030657600080fd5b50610321600480360381019061031c919061424f565b610a96565b60405161032e919061491d565b60405180910390f35b34801561034357600080fd5b5061035e600480360381019061035991906140ad565b610b1b565b005b34801561036c57600080fd5b506103876004803603810190610382919061424f565b610c33565b60405161039996959493929190614de7565b60405180910390f35b3480156103ae57600080fd5b506103c960048036038101906103c4919061427c565b610d24565b005b3480156103d757600080fd5b506103f260048036038101906103ed9190613f2a565b610e70565b005b34801561040057600080fd5b5061041b60048036038101906104169190613f97565b610f5b565b005b34801561042957600080fd5b50610444600480360381019061043f9190613f97565b610fbb565b005b34801561045257600080fd5b5061046d6004803603810190610468919061424f565b610fdb565b005b610489600480360381019061048491906140ed565b611037565b6040516104969190614984565b60405180910390f35b3480156104ab57600080fd5b506104c660048036038101906104c1919061417f565b6117d1565b005b3480156104d457600080fd5b506104ef60048036038101906104ea919061424f565b61187e565b6040516104fc919061491d565b60405180910390f35b34801561051157600080fd5b5061052c60048036038101906105279190614136565b611930565b005b34801561053a57600080fd5b50610543611a95565b604051610550919061491d565b60405180910390f35b34801561056557600080fd5b5061056e611b3b565b60405161057b9190614da3565b60405180910390f35b34801561059057600080fd5b506105ab60048036038101906105a69190613f2a565b611b43565b005b3480156105b957600080fd5b506105d460048036038101906105cf9190613f2a565b611c03565b6040516105e19190614da3565b60405180910390f35b3480156105f657600080fd5b506105ff611cbb565b005b34801561060d57600080fd5b50610616611d43565b6040516106239190614984565b60405180910390f35b34801561063857600080fd5b50610641611d9b565b60405161064e9190614da3565b60405180910390f35b34801561066357600080fd5b5061066c611da1565b6040516106799190614da3565b60405180910390f35b34801561068e57600080fd5b50610697611dad565b6040516106a4919061491d565b60405180910390f35b3480156106b957600080fd5b506106c2611dd7565b6040516106cf91906149c1565b60405180910390f35b3480156106e457600080fd5b506106ff60048036038101906106fa919061424f565b611e69565b60405161070c9190614da3565b60405180910390f35b34801561072157600080fd5b5061073c6004803603810190610737919061406d565b611ed8565b005b34801561074a57600080fd5b5061076560048036038101906107609190613f2a565b612059565b005b34801561077357600080fd5b5061078e60048036038101906107899190613fea565b6121d7565b005b34801561079c57600080fd5b506107b760048036038101906107b2919061424f565b612239565b005b3480156107c557600080fd5b506107ce612330565b6040516107db9190614da3565b60405180910390f35b3480156107f057600080fd5b5061080b6004803603810190610806919061424f565b6123ca565b60405161081891906149c1565b60405180910390f35b34801561082d57600080fd5b5061084860048036038101906108439190614206565b6123dc565b005b34801561085657600080fd5b5061085f612486565b60405161086c9190614da3565b60405180910390f35b34801561088157600080fd5b5061089c60048036038101906108979190613f2a565b61248c565b005b3480156108aa57600080fd5b506108c560048036038101906108c09190613f57565b612577565b6040516108d291906149a6565b60405180910390f35b3480156108e757600080fd5b5061090260048036038101906108fd9190613f2a565b61260b565b005b60007f80ac58cd000000000000000000000000000000000000000000000000000000007bffffffffffffffffffffffffffffffffffffffffffffffffffffffff1916827bffffffffffffffffffffffffffffffffffffffffffffffffffffffff191614806109cf57507f5b5e139f000000000000000000000000000000000000000000000000000000007bffffffffffffffffffffffffffffffffffffffffffffffffffffffff1916827bffffffffffffffffffffffffffffffffffffffffffffffffffffffff1916145b806109df57506109de82612703565b5b9050919050565b60146020528060005260406000206000915090505481565b600e5481565b606060008054610a1390615195565b80601f0160208091040260200160405190810160405280929190818152602001828054610a3f90615195565b8015610a8c5780601f10610a6157610100808354040283529160200191610a8c565b820191906000526020600020905b815481529060010190602001808311610a6f57829003601f168201915b5050505050905090565b6000610aa18261276d565b610ae0576040517f08c379a0000000000000000000000000000000000000000000000000000000008152600401610ad790614c83565b60405180910390fd5b6004600083815260200190815260200160002060009054906101000a900473ffffffffffffffffffffffffffffffffffffffff169050919050565b6000610b268261187e565b90508073ffffffffffffffffffffffffffffffffffffffff168373ffffffffffffffffffffffffffffffffffffffff161415610b97576040517f08c379a0000000000000000000000000000000000000000000000000000000008152600401610b8e90614d03565b60405180910390fd5b8073ffffffffffffffffffffffffffffffffffffffff16610bb66127d9565b73ffffffffffffffffffffffffffffffffffffffff161480610be55750610be481610bdf6127d9565b612577565b5b610c24576040517f08c379a0000000000000000000000000000000000000000000000000000000008152600401610c1b90614b63565b60405180910390fd5b610c2e83836127e1565b505050565b6013602052806000526040600020600091509050806000015490806001018054610c5c90615195565b80601f0160208091040260200160405190810160405280929190818152602001828054610c8890615195565b8015610cd55780601f10610caa57610100808354040283529160200191610cd5565b820191906000526020600020905b815481529060010190602001808311610cb857829003601f168201915b5050505050908060020154908060030160009054906101000a900473ffffffffffffffffffffffffffffffffffffffff16908060040154908060050160009054906101000a900460ff16905086565b60011515610d318361276d565b151514610d73576040517f08c379a0000000000000000000000000000000000000000000000000000000008152600401610d6a90614b83565b60405180910390fd5b3373ffffffffffffffffffffffffffffffffffffffff166013600084815260200190815260200160002060030160009054906101000a900473ffffffffffffffffffffffffffffffffffffffff1673ffffffffffffffffffffffffffffffffffffffff1614610e17576040517f08c379a0000000000000000000000000000000000000000000000000000000008152600401610e0e906149e3565b60405180910390fd5b8060136000848152602001908152602001600020600201819055507f5458fb5d0126e16f3876e6e52b0ac3d10ad100462e86d15204c091f3dcb6c544826001604051610e64929190614dbe565b60405180910390a15050565b600a60009054906101000a900473ffffffffffffffffffffffffffffffffffffffff1673ffffffffffffffffffffffffffffffffffffffff163373ffffffffffffffffffffffffffffffffffffffff1614610f00576040517f08c379a0000000000000000000000000000000000000000000000000000000008152600401610ef790614d43565b60405180910390fd5b6000601560008373ffffffffffffffffffffffffffffffffffffffff1673ffffffffffffffffffffffffffffffffffffffff16815260200190815260200160002060006101000a81548160ff02191690831515021790555050565b610f6c610f666127d9565b8261289a565b610fab576040517f08c379a0000000000000000000000000000000000000000000000000000000008152600401610fa290614d23565b60405180910390fd5b610fb6838383612978565b505050565b610fd6838383604051806020016040528060008152506121d7565b505050565b610fec610fe66127d9565b8261289a565b61102b576040517f08c379a000000000000000000000000000000000000000000000000000000000815260040161102290614d63565b60405180910390fd5b61103481612bd4565b50565b6060600a8251111561107e576040517f08c379a000000000000000000000000000000000000000000000000000000000815260040161107590614d83565b60405180910390fd5b6000600e54905060011515601560003373ffffffffffffffffffffffffffffffffffffffff1673ffffffffffffffffffffffffffffffffffffffff16815260200190815260200160002060009054906101000a900460ff16151514156111db57600f54905060011515600b60149054906101000a900460ff16151514156111da576001601760003373ffffffffffffffffffffffffffffffffffffffff1673ffffffffffffffffffffffffffffffffffffffff168152602001908152602001600020600082825461114f9190614fca565b925050819055506002601760003373ffffffffffffffffffffffffffffffffffffffff1673ffffffffffffffffffffffffffffffffffffffff1681526020019081526020016000205411156111d9576040517f08c379a00000000000000000000000000000000000000000000000000000000081526004016111d090614aa3565b60405180910390fd5b5b5b60001515601560003373ffffffffffffffffffffffffffffffffffffffff1673ffffffffffffffffffffffffffffffffffffffff16815260200190815260200160002060009054906101000a900460ff161515141561128b5760001515600b60149054906101000a900460ff1615151461128a576040517f08c379a000000000000000000000000000000000000000000000000000000000815260040161128190614c23565b60405180910390fd5b5b60006112976008612be0565b600d546112a491906150ab565b90506000845167ffffffffffffffff8111156112c3576112c261532e565b5b6040519080825280602002602001820160405280156112f15781602001602082028036833780820191505090505b5090508451836113019190615051565b341015611343576040517f08c379a000000000000000000000000000000000000000000000000000000000815260040161133a90614c03565b60405180910390fd5b8185511115611387576040517f08c379a000000000000000000000000000000000000000000000000000000000815260040161137e90614ac3565b60405180910390fd5b60005b85518110156115d157600115156113ba8783815181106113ad576113ac6152ff565b5b6020026020010151612bee565b1515146113fc576040517f08c379a00000000000000000000000000000000000000000000000000000000081526004016113f390614a63565b60405180910390fd5b600160126000888481518110611415576114146152ff565b5b602002602001015180519060200120815260200190815260200160002060006101000a81548160ff021916908315150217905550600061146f33888481518110611462576114616152ff565b5b6020026020010151612c37565b90506011819080600181540180825580915050600190039060005260206000200160009091909190915055808383815181106114ae576114ad6152ff565b5b602002602001018181525050806013600083815260200190815260200160002060000181905550846013600083815260200190815260200160002060020181905550868281518110611503576115026152ff565b5b6020026020010151601360008381526020019081526020016000206001019080519060200190611534929190613b17565b50336013600083815260200190815260200160002060030160006101000a81548173ffffffffffffffffffffffffffffffffffffffff021916908373ffffffffffffffffffffffffffffffffffffffff1602179055504260136000838152602001908152602001600020600401819055508460146000838152602001908152602001600020819055505080806115c9906151f8565b91505061138a565b5060003490506000600a60009054906101000a900473ffffffffffffffffffffffffffffffffffffffff1673ffffffffffffffffffffffffffffffffffffffff168260405161161f90614908565b60006040518083038185875af1925050503d806000811461165c576040519150601f19603f3d011682016040523d82523d6000602084013e611661565b606091505b5050905060011515811515146116ac576040517f08c379a00000000000000000000000000000000000000000000000000000000081526004016116a390614a83565b60405180910390fd5b7f3ef94975640d85d5c79603adecd9dcf8257e30c5114f62d5a9ba5c59459f4aa9816040516116db91906149a6565b60405180910390a18651601660003373ffffffffffffffffffffffffffffffffffffffff1673ffffffffffffffffffffffffffffffffffffffff16815260200190815260200160002060008282546117339190614fca565b9250508190555060001515600b60159054906101000a900460ff16151514156117c457611770601660003373ffffffffffffffffffffffffffffffffffffffff1673ffffffffffffffffffffffffffffffffffffffff16815260200190815260200160002054106117c3576117a733612d77565b6001600b60156101000a81548160ff0219169083151502179055505b5b8295505050505050919050565b600a60009054906101000a900473ffffffffffffffffffffffffffffffffffffffff1673ffffffffffffffffffffffffffffffffffffffff163373ffffffffffffffffffffffffffffffffffffffff1614611861576040517f08c379a000000000000000000000000000000000000000000000000000000000815260040161185890614d43565b60405180910390fd5b80600b60146101000a81548160ff02191690831515021790555050565b6000806002600084815260200190815260200160002060009054906101000a900473ffffffffffffffffffffffffffffffffffffffff169050600073ffffffffffffffffffffffffffffffffffffffff168173ffffffffffffffffffffffffffffffffffffffff161415611927576040517f08c379a000000000000000000000000000000000000000000000000000000000815260040161191e90614bc3565b60405180910390fd5b80915050919050565b60005b8151811015611a915760011515611963838381518110611956576119556152ff565b5b602002602001015161276d565b1515146119a5576040517f08c379a000000000000000000000000000000000000000000000000000000000815260040161199c90614b83565b60405180910390fd5b611a7e8282815181106119bb576119ba6152ff565b5b6020026020010151601860008585815181106119da576119d96152ff565b5b6020026020010151815260200190815260200160002080546119fb90615195565b80601f0160208091040260200160405190810160405280929190818152602001828054611a2790615195565b8015611a745780601f10611a4957610100808354040283529160200191611a74565b820191906000526020600020905b815481529060010190602001808311611a5757829003601f168201915b50505050506130a0565b8080611a89906151f8565b915050611933565b5050565b6000611a9f6127d9565b73ffffffffffffffffffffffffffffffffffffffff16611abd611dad565b73ffffffffffffffffffffffffffffffffffffffff1614611b13576040517f08c379a0000000000000000000000000000000000000000000000000000000008152600401611b0a90614ca3565b60405180910390fd5b600a60009054906101000a900473ffffffffffffffffffffffffffffffffffffffff16905090565b600047905090565b611b4b6127d9565b73ffffffffffffffffffffffffffffffffffffffff16611b69611dad565b73ffffffffffffffffffffffffffffffffffffffff1614611bbf576040517f08c379a0000000000000000000000000000000000000000000000000000000008152600401611bb690614ca3565b60405180910390fd5b80600a60006101000a81548173ffffffffffffffffffffffffffffffffffffffff021916908373ffffffffffffffffffffffffffffffffffffffff16021790555050565b60008073ffffffffffffffffffffffffffffffffffffffff168273ffffffffffffffffffffffffffffffffffffffff161415611c74576040517f08c379a0000000000000000000000000000000000000000000000000000000008152600401611c6b90614ba3565b60405180910390fd5b600360008373ffffffffffffffffffffffffffffffffffffffff1673ffffffffffffffffffffffffffffffffffffffff168152602001908152602001600020549050919050565b611cc36127d9565b73ffffffffffffffffffffffffffffffffffffffff16611ce1611dad565b73ffffffffffffffffffffffffffffffffffffffff1614611d37576040517f08c379a0000000000000000000000000000000000000000000000000000000008152600401611d2e90614ca3565b60405180910390fd5b611d416000613114565b565b60606011805480602002602001604051908101604052809291908181526020018280548015611d9157602002820191906000526020600020905b815481526020019060010190808311611d7d575b5050505050905090565b600f5481565b60088060000154905081565b6000600760009054906101000a900473ffffffffffffffffffffffffffffffffffffffff16905090565b606060018054611de690615195565b80601f0160208091040260200160405190810160405280929190818152602001828054611e1290615195565b8015611e5f5780601f10611e3457610100808354040283529160200191611e5f565b820191906000526020600020905b815481529060010190602001808311611e4257829003601f168201915b5050505050905090565b600060011515611e788361276d565b151514611eba576040517f08c379a0000000000000000000000000000000000000000000000000000000008152600401611eb190614b83565b60405180910390fd5b60136000838152602001908152602001600020600201549050919050565b611ee06127d9565b73ffffffffffffffffffffffffffffffffffffffff168273ffffffffffffffffffffffffffffffffffffffff161415611f4e576040517f08c379a0000000000000000000000000000000000000000000000000000000008152600401611f4590614b03565b60405180910390fd5b8060056000611f5b6127d9565b73ffffffffffffffffffffffffffffffffffffffff1673ffffffffffffffffffffffffffffffffffffffff16815260200190815260200160002060008473ffffffffffffffffffffffffffffffffffffffff1673ffffffffffffffffffffffffffffffffffffffff16815260200190815260200160002060006101000a81548160ff0219169083151502179055508173ffffffffffffffffffffffffffffffffffffffff166120086127d9565b73ffffffffffffffffffffffffffffffffffffffff167f17307eab39ab6107e8899845ad3d59bd9653f200f220920489ca2b5937696c318360405161204d91906149a6565b60405180910390a35050565b600a60009054906101000a900473ffffffffffffffffffffffffffffffffffffffff1673ffffffffffffffffffffffffffffffffffffffff163373ffffffffffffffffffffffffffffffffffffffff16146120e9576040517f08c379a00000000000000000000000000000000000000000000000000000000081526004016120e090614d43565b60405180910390fd5b60008173ffffffffffffffffffffffffffffffffffffffff164760405161210f90614908565b60006040518083038185875af1925050503d806000811461214c576040519150601f19603f3d011682016040523d82523d6000602084013e612151565b606091505b50509050600115158115151461219c576040517f08c379a000000000000000000000000000000000000000000000000000000000815260040161219390614b23565b60405180910390fd5b7f3ef94975640d85d5c79603adecd9dcf8257e30c5114f62d5a9ba5c59459f4aa9816040516121cb91906149a6565b60405180910390a15050565b6121e86121e26127d9565b8361289a565b612227576040517f08c379a000000000000000000000000000000000000000000000000000000000815260040161221e90614d23565b60405180910390fd5b612233848484846131da565b50505050565b600115156122468261276d565b151514612288576040517f08c379a000000000000000000000000000000000000000000000000000000000815260040161227f90614b83565b60405180910390fd5b61232d816018600084815260200190815260200160002080546122aa90615195565b80601f01602080910402602001604051908101604052809291908181526020018280546122d690615195565b80156123235780601f106122f857610100808354040283529160200191612323565b820191906000526020600020905b81548152906001019060200180831161230657829003601f168201915b50505050506130a0565b50565b6000600a60009054906101000a900473ffffffffffffffffffffffffffffffffffffffff1673ffffffffffffffffffffffffffffffffffffffff163373ffffffffffffffffffffffffffffffffffffffff16146123c2576040517f08c379a00000000000000000000000000000000000000000000000000000000081526004016123b990614d43565b60405180910390fd5b601054905090565b60606123d582613236565b9050919050565b600a60009054906101000a900473ffffffffffffffffffffffffffffffffffffffff1673ffffffffffffffffffffffffffffffffffffffff163373ffffffffffffffffffffffffffffffffffffffff161461246c576040517f08c379a000000000000000000000000000000000000000000000000000000000815260040161246390614d43565b60405180910390fd5b80600c9080519060200190612482929190613b17565b5050565b600d5481565b600a60009054906101000a900473ffffffffffffffffffffffffffffffffffffffff1673ffffffffffffffffffffffffffffffffffffffff163373ffffffffffffffffffffffffffffffffffffffff161461251c576040517f08c379a000000000000000000000000000000000000000000000000000000000815260040161251390614d43565b60405180910390fd5b6001601560008373ffffffffffffffffffffffffffffffffffffffff1673ffffffffffffffffffffffffffffffffffffffff16815260200190815260200160002060006101000a81548160ff02191690831515021790555050565b6000600560008473ffffffffffffffffffffffffffffffffffffffff1673ffffffffffffffffffffffffffffffffffffffff16815260200190815260200160002060008373ffffffffffffffffffffffffffffffffffffffff1673ffffffffffffffffffffffffffffffffffffffff16815260200190815260200160002060009054906101000a900460ff16905092915050565b6126136127d9565b73ffffffffffffffffffffffffffffffffffffffff16612631611dad565b73ffffffffffffffffffffffffffffffffffffffff1614612687576040517f08c379a000000000000000000000000000000000000000000000000000000000815260040161267e90614ca3565b60405180910390fd5b600073ffffffffffffffffffffffffffffffffffffffff168173ffffffffffffffffffffffffffffffffffffffff1614156126f7576040517f08c379a00000000000000000000000000000000000000000000000000000000081526004016126ee90614a23565b60405180910390fd5b61270081613114565b50565b60007f01ffc9a7000000000000000000000000000000000000000000000000000000007bffffffffffffffffffffffffffffffffffffffffffffffffffffffff1916827bffffffffffffffffffffffffffffffffffffffffffffffffffffffff1916149050919050565b60008073ffffffffffffffffffffffffffffffffffffffff166002600084815260200190815260200160002060009054906101000a900473ffffffffffffffffffffffffffffffffffffffff1673ffffffffffffffffffffffffffffffffffffffff1614159050919050565b600033905090565b816004600083815260200190815260200160002060006101000a81548173ffffffffffffffffffffffffffffffffffffffff021916908373ffffffffffffffffffffffffffffffffffffffff160217905550808273ffffffffffffffffffffffffffffffffffffffff166128548361187e565b73ffffffffffffffffffffffffffffffffffffffff167f8c5be1e5ebec7d5bd14f71427d1e84f3dd0314c0f7b2291e5b200ac8c7c3b92560405160405180910390a45050565b60006128a58261276d565b6128e4576040517f08c379a00000000000000000000000000000000000000000000000000000000081526004016128db90614b43565b60405180910390fd5b60006128ef8361187e565b90508073ffffffffffffffffffffffffffffffffffffffff168473ffffffffffffffffffffffffffffffffffffffff16148061295e57508373ffffffffffffffffffffffffffffffffffffffff1661294684610a96565b73ffffffffffffffffffffffffffffffffffffffff16145b8061296f575061296e8185612577565b5b91505092915050565b8273ffffffffffffffffffffffffffffffffffffffff166129988261187e565b73ffffffffffffffffffffffffffffffffffffffff16146129ee576040517f08c379a00000000000000000000000000000000000000000000000000000000081526004016129e590614cc3565b60405180910390fd5b600073ffffffffffffffffffffffffffffffffffffffff168273ffffffffffffffffffffffffffffffffffffffff161415612a5e576040517f08c379a0000000000000000000000000000000000000000000000000000000008152600401612a5590614ae3565b60405180910390fd5b612a69838383613388565b612a746000826127e1565b6001600360008573ffffffffffffffffffffffffffffffffffffffff1673ffffffffffffffffffffffffffffffffffffffff1681526020019081526020016000206000828254612ac491906150ab565b925050819055506001600360008473ffffffffffffffffffffffffffffffffffffffff1673ffffffffffffffffffffffffffffffffffffffff1681526020019081526020016000206000828254612b1b9190614fca565b92505081905550816002600083815260200190815260200160002060006101000a81548173ffffffffffffffffffffffffffffffffffffffff021916908373ffffffffffffffffffffffffffffffffffffffff160217905550808273ffffffffffffffffffffffffffffffffffffffff168473ffffffffffffffffffffffffffffffffffffffff167fddf252ad1be2c89b69c2b068fc378daa952ba7f163c4a11628f55a4df523b3ef60405160405180910390a4505050565b612bdd8161338d565b50565b600081600001549050919050565b600060011515601260008480519060200120815260200190815260200160002060009054906101000a900460ff1615151415612c2d5760009050612c32565b600190505b919050565b6000612c4360086133e0565b612c5683612c516008612be0565b6133f6565b612cf3612c636008612be0565b60098054612c7090615195565b80601f0160208091040260200160405190810160405280929190818152602001828054612c9c90615195565b8015612ce95780601f10612cbe57610100808354040283529160200191612ce9565b820191906000526020600020905b815481529060010190602001808311612ccc57829003601f168201915b50505050506130a0565b8160186000612d026008612be0565b81526020019081526020016000209080519060200190612d23929190613b17565b50612d2e6008612be0565b7f3a5398bda6f1f57d6c96834fa9bf02b5517bdc847d14312015a917ba421c31c984604051612d5d919061491d565b60405180910390a2612d6f6008612be0565b905092915050565b60011515612e0e600c8054612d8b90615195565b80601f0160208091040260200160405190810160405280929190818152602001828054612db790615195565b8015612e045780601f10612dd957610100808354040283529160200191612e04565b820191906000526020600020905b815481529060010190602001808311612de757829003601f168201915b5050505050612bee565b151514612e50576040517f08c379a0000000000000000000000000000000000000000000000000000000008152600401612e4790614a63565b60405180910390fd5b600160126000600c604051612e6591906148cd565b6040518091039020815260200190815260200160002060006101000a81548160ff0219169083151502179055506000612f2833600c8054612ea590615195565b80601f0160208091040260200160405190810160405280929190818152602001828054612ed190615195565b8015612f1e5780601f10612ef357610100808354040283529160200191612f1e565b820191906000526020600020905b815481529060010190602001808311612f0157829003601f168201915b5050505050612c37565b90506011819080600181540180825580915050600190039060005260206000200160009091909190915055806013600083815260200190815260200160002060000181905550600e546013600083815260200190815260200160002060020181905550600c60136000838152602001908152602001600020600101908054612faf90615195565b612fba929190613b9d565b50816013600083815260200190815260200160002060030160006101000a81548173ffffffffffffffffffffffffffffffffffffffff021916908373ffffffffffffffffffffffffffffffffffffffff160217905550426013600083815260200190815260200160002060040181905550600e5460146000838152602001908152602001600020819055506001601660008473ffffffffffffffffffffffffffffffffffffffff1673ffffffffffffffffffffffffffffffffffffffff16815260200190815260200160002060008282546130959190614fca565b925050819055505050565b6130a98261276d565b6130e8576040517f08c379a00000000000000000000000000000000000000000000000000000000081526004016130df90614be3565b60405180910390fd5b8060066000848152602001908152602001600020908051906020019061310f929190613b17565b505050565b6000600760009054906101000a900473ffffffffffffffffffffffffffffffffffffffff16905081600760006101000a81548173ffffffffffffffffffffffffffffffffffffffff021916908373ffffffffffffffffffffffffffffffffffffffff1602179055508173ffffffffffffffffffffffffffffffffffffffff168173ffffffffffffffffffffffffffffffffffffffff167f8be0079c531659141344cd1fd0a4f28419497f9722a3daafe3b4186f6b6457e060405160405180910390a35050565b6131e5848484612978565b6131f184848484613414565b613230576040517f08c379a000000000000000000000000000000000000000000000000000000000815260040161322790614a03565b60405180910390fd5b50505050565b60606132418261276d565b613280576040517f08c379a000000000000000000000000000000000000000000000000000000000815260040161327790614c63565b60405180910390fd5b60006006600084815260200190815260200160002080546132a090615195565b80601f01602080910402602001604051908101604052809291908181526020018280546132cc90615195565b80156133195780601f106132ee57610100808354040283529160200191613319565b820191906000526020600020905b8154815290600101906020018083116132fc57829003601f168201915b50505050509050600061332a6135ab565b9050600081511415613340578192505050613383565b60008251111561337557808260405160200161335d9291906148e4565b60405160208183030381529060405292505050613383565b61337e846135c2565b925050505b919050565b505050565b61339681613669565b60006006600083815260200190815260200160002080546133b690615195565b9050146133dd576006600082815260200190815260200160002060006133dc9190613c2a565b5b50565b6001816000016000828254019250508190555050565b61341082826040518060200160405280600081525061377a565b5050565b60006134358473ffffffffffffffffffffffffffffffffffffffff166137d5565b1561359e578373ffffffffffffffffffffffffffffffffffffffff1663150b7a0261345e6127d9565b8786866040518563ffffffff1660e01b81526004016134809493929190614938565b602060405180830381600087803b15801561349a57600080fd5b505af19250505080156134cb57506040513d601f19601f820116820180604052508101906134c891906141d9565b60015b61354e573d80600081146134fb576040519150601f19603f3d011682016040523d82523d6000602084013e613500565b606091505b50600081511415613546576040517f08c379a000000000000000000000000000000000000000000000000000000000815260040161353d90614a03565b60405180910390fd5b805181602001fd5b63150b7a0260e01b7bffffffffffffffffffffffffffffffffffffffffffffffffffffffff1916817bffffffffffffffffffffffffffffffffffffffffffffffffffffffff1916149150506135a3565b600190505b949350505050565b606060405180602001604052806000815250905090565b60606135cd8261276d565b61360c576040517f08c379a000000000000000000000000000000000000000000000000000000000815260040161360390614ce3565b60405180910390fd5b60006136166135ab565b905060008151116136365760405180602001604052806000815250613661565b80613640846137e8565b6040516020016136519291906148e4565b6040516020818303038152906040525b915050919050565b60006136748261187e565b905061368281600084613388565b61368d6000836127e1565b6001600360008373ffffffffffffffffffffffffffffffffffffffff1673ffffffffffffffffffffffffffffffffffffffff16815260200190815260200160002060008282546136dd91906150ab565b925050819055506002600083815260200190815260200160002060006101000a81549073ffffffffffffffffffffffffffffffffffffffff021916905581600073ffffffffffffffffffffffffffffffffffffffff168273ffffffffffffffffffffffffffffffffffffffff167fddf252ad1be2c89b69c2b068fc378daa952ba7f163c4a11628f55a4df523b3ef60405160405180910390a45050565b6137848383613949565b6137916000848484613414565b6137d0576040517f08c379a00000000000000000000000000000000000000000000000000000000081526004016137c790614a03565b60405180910390fd5b505050565b600080823b905060008111915050919050565b60606000821415613830576040518060400160405280600181526020017f30000000000000000000000000000000000000000000000000000000000000008152509050613944565b600082905060005b6000821461386257808061384b906151f8565b915050600a8261385b9190615020565b9150613838565b60008167ffffffffffffffff81111561387e5761387d61532e565b5b6040519080825280601f01601f1916602001820160405280156138b05781602001600182028036833780820191505090505b5090505b6000851461393d576001826138c991906150ab565b9150600a856138d89190615241565b60306138e49190614fca565b60f81b8183815181106138fa576138f96152ff565b5b60200101907effffffffffffffffffffffffffffffffffffffffffffffffffffffffffffff1916908160001a905350600a856139369190615020565b94506138b4565b8093505050505b919050565b600073ffffffffffffffffffffffffffffffffffffffff168273ffffffffffffffffffffffffffffffffffffffff1614156139b9576040517f08c379a00000000000000000000000000000000000000000000000000000000081526004016139b090614c43565b60405180910390fd5b6139c28161276d565b15613a02576040517f08c379a00000000000000000000000000000000000000000000000000000000081526004016139f990614a43565b60405180910390fd5b613a0e60008383613388565b6001600360008473ffffffffffffffffffffffffffffffffffffffff1673ffffffffffffffffffffffffffffffffffffffff1681526020019081526020016000206000828254613a5e9190614fca565b92505081905550816002600083815260200190815260200160002060006101000a81548173ffffffffffffffffffffffffffffffffffffffff021916908373ffffffffffffffffffffffffffffffffffffffff160217905550808273ffffffffffffffffffffffffffffffffffffffff16600073ffffffffffffffffffffffffffffffffffffffff167fddf252ad1be2c89b69c2b068fc378daa952ba7f163c4a11628f55a4df523b3ef60405160405180910390a45050565b828054613b2390615195565b90600052602060002090601f016020900481019282613b455760008555613b8c565b82601f10613b5e57805160ff1916838001178555613b8c565b82800160010185558215613b8c579182015b82811115613b8b578251825591602001919060010190613b70565b5b509050613b999190613c6a565b5090565b828054613ba990615195565b90600052602060002090601f016020900481019282613bcb5760008555613c19565b82601f10613bdc5780548555613c19565b82800160010185558215613c1957600052602060002091601f016020900482015b82811115613c18578254825591600101919060010190613bfd565b5b509050613c269190613c6a565b5090565b508054613c3690615195565b6000825580601f10613c485750613c67565b601f016020900490600052602060002090810190613c669190613c6a565b5b50565b5b80821115613c83576000816000905550600101613c6b565b5090565b6000613c9a613c9584614e74565b614e4f565b90508083825260208201905082856020860282011115613cbd57613cbc615362565b5b60005b85811015613d0b57813567ffffffffffffffff811115613ce357613ce261535d565b5b808601613cf08982613ee7565b85526020850194506020840193505050600181019050613cc0565b5050509392505050565b6000613d28613d2384614ea0565b614e4f565b90508083825260208201905082856020860282011115613d4b57613d4a615362565b5b60005b85811015613d7b5781613d618882613f15565b845260208401935060208301925050600181019050613d4e565b5050509392505050565b6000613d98613d9384614ecc565b614e4f565b905082815260208101848484011115613db457613db3615367565b5b613dbf848285615153565b509392505050565b6000613dda613dd584614efd565b614e4f565b905082815260208101848484011115613df657613df5615367565b5b613e01848285615153565b509392505050565b600081359050613e1881615b04565b92915050565b600082601f830112613e3357613e3261535d565b5b8135613e43848260208601613c87565b91505092915050565b600082601f830112613e6157613e6061535d565b5b8135613e71848260208601613d15565b91505092915050565b600081359050613e8981615b1b565b92915050565b600081359050613e9e81615b32565b92915050565b600081519050613eb381615b32565b92915050565b600082601f830112613ece57613ecd61535d565b5b8135613ede848260208601613d85565b91505092915050565b600082601f830112613efc57613efb61535d565b5b8135613f0c848260208601613dc7565b91505092915050565b600081359050613f2481615b49565b92915050565b600060208284031215613f4057613f3f615371565b5b6000613f4e84828501613e09565b91505092915050565b60008060408385031215613f6e57613f6d615371565b5b6000613f7c85828601613e09565b9250506020613f8d85828601613e09565b9150509250929050565b600080600060608486031215613fb057613faf615371565b5b6000613fbe86828701613e09565b9350506020613fcf86828701613e09565b9250506040613fe086828701613f15565b9150509250925092565b6000806000806080858703121561400457614003615371565b5b600061401287828801613e09565b945050602061402387828801613e09565b935050604061403487828801613f15565b925050606085013567ffffffffffffffff8111156140555761405461536c565b5b61406187828801613eb9565b91505092959194509250565b6000806040838503121561408457614083615371565b5b600061409285828601613e09565b92505060206140a385828601613e7a565b9150509250929050565b600080604083850312156140c4576140c3615371565b5b60006140d285828601613e09565b92505060206140e385828601613f15565b9150509250929050565b60006020828403121561410357614102615371565b5b600082013567ffffffffffffffff8111156141215761412061536c565b5b61412d84828501613e1e565b91505092915050565b60006020828403121561414c5761414b615371565b5b600082013567ffffffffffffffff81111561416a5761416961536c565b5b61417684828501613e4c565b91505092915050565b60006020828403121561419557614194615371565b5b60006141a384828501613e7a565b91505092915050565b6000602082840312156141c2576141c1615371565b5b60006141d084828501613e8f565b91505092915050565b6000602082840312156141ef576141ee615371565b5b60006141fd84828501613ea4565b91505092915050565b60006020828403121561421c5761421b615371565b5b600082013567ffffffffffffffff81111561423a5761423961536c565b5b61424684828501613ee7565b91505092915050565b60006020828403121561426557614264615371565b5b600061427384828501613f15565b91505092915050565b6000806040838503121561429357614292615371565b5b60006142a185828601613f15565b92505060206142b285828601613f15565b9150509250929050565b60006142c883836148af565b60208301905092915050565b6142dd816150df565b82525050565b60006142ee82614f53565b6142f88185614f81565b935061430383614f2e565b8060005b8381101561433457815161431b88826142bc565b975061432683614f74565b925050600181019050614307565b5085935050505092915050565b61434a816150f1565b82525050565b600061435b82614f5e565b6143658185614f92565b9350614375818560208601615162565b61437e81615376565b840191505092915050565b6000815461439681615195565b6143a08186614fa3565b945060018216600081146143bb57600181146143cc576143ff565b60ff198316865281860193506143ff565b6143d585614f3e565b60005b838110156143f7578154818901526001820191506020810190506143d8565b838801955050505b50505092915050565b600061441382614f69565b61441d8185614fae565b935061442d818560208601615162565b61443681615376565b840191505092915050565b600061444c82614f69565b6144568185614fbf565b9350614466818560208601615162565b80840191505092915050565b600061447f601583614fae565b915061448a82615387565b602082019050919050565b60006144a2603283614fae565b91506144ad826153b0565b604082019050919050565b60006144c5602683614fae565b91506144d0826153ff565b604082019050919050565b60006144e8601c83614fae565b91506144f38261544e565b602082019050919050565b600061450b600e83614fae565b915061451682615477565b602082019050919050565b600061452e601d83614fae565b9150614539826154a0565b602082019050919050565b6000614551604983614fae565b915061455c826154c9565b606082019050919050565b6000614574601f83614fae565b915061457f8261553e565b602082019050919050565b6000614597602483614fae565b91506145a282615567565b604082019050919050565b60006145ba601983614fae565b91506145c5826155b6565b602082019050919050565b60006145dd601483614fae565b91506145e8826155df565b602082019050919050565b6000614600602c83614fae565b915061460b82615608565b604082019050919050565b6000614623603883614fae565b915061462e82615657565b604082019050919050565b6000614646601183614fae565b9150614651826156a6565b602082019050919050565b6000614669602a83614fae565b9150614674826156cf565b604082019050919050565b600061468c602983614fae565b91506146978261571e565b604082019050919050565b60006146af602e83614fae565b91506146ba8261576d565b604082019050919050565b60006146d2601483614fae565b91506146dd826157bc565b602082019050919050565b60006146f5602983614fae565b9150614700826157e5565b604082019050919050565b6000614718602083614fae565b915061472382615834565b602082019050919050565b600061473b603183614fae565b91506147468261585d565b604082019050919050565b600061475e602c83614fae565b9150614769826158ac565b604082019050919050565b6000614781602083614fae565b915061478c826158fb565b602082019050919050565b60006147a4602983614fae565b91506147af82615924565b604082019050919050565b60006147c7602f83614fae565b91506147d282615973565b604082019050919050565b60006147ea602183614fae565b91506147f5826159c2565b604082019050919050565b600061480d600083614fa3565b915061481882615a11565b600082019050919050565b6000614830603183614fae565b915061483b82615a14565b604082019050919050565b6000614853600c83614fae565b915061485e82615a63565b602082019050919050565b6000614876603083614fae565b915061488182615a8c565b604082019050919050565b6000614899601d83614fae565b91506148a482615adb565b602082019050919050565b6148b881615149565b82525050565b6148c781615149565b82525050565b60006148d98284614389565b915081905092915050565b60006148f08285614441565b91506148fc8284614441565b91508190509392505050565b600061491382614800565b9150819050919050565b600060208201905061493260008301846142d4565b92915050565b600060808201905061494d60008301876142d4565b61495a60208301866142d4565b61496760408301856148be565b81810360608301526149798184614350565b905095945050505050565b6000602082019050818103600083015261499e81846142e3565b905092915050565b60006020820190506149bb6000830184614341565b92915050565b600060208201905081810360008301526149db8184614408565b905092915050565b600060208201905081810360008301526149fc81614472565b9050919050565b60006020820190508181036000830152614a1c81614495565b9050919050565b60006020820190508181036000830152614a3c816144b8565b9050919050565b60006020820190508181036000830152614a5c816144db565b9050919050565b60006020820190508181036000830152614a7c816144fe565b9050919050565b60006020820190508181036000830152614a9c81614521565b9050919050565b60006020820190508181036000830152614abc81614544565b9050919050565b60006020820190508181036000830152614adc81614567565b9050919050565b60006020820190508181036000830152614afc8161458a565b9050919050565b60006020820190508181036000830152614b1c816145ad565b9050919050565b60006020820190508181036000830152614b3c816145d0565b9050919050565b60006020820190508181036000830152614b5c816145f3565b9050919050565b60006020820190508181036000830152614b7c81614616565b9050919050565b60006020820190508181036000830152614b9c81614639565b9050919050565b60006020820190508181036000830152614bbc8161465c565b9050919050565b60006020820190508181036000830152614bdc8161467f565b9050919050565b60006020820190508181036000830152614bfc816146a2565b9050919050565b60006020820190508181036000830152614c1c816146c5565b9050919050565b60006020820190508181036000830152614c3c816146e8565b9050919050565b60006020820190508181036000830152614c5c8161470b565b9050919050565b60006020820190508181036000830152614c7c8161472e565b9050919050565b60006020820190508181036000830152614c9c81614751565b9050919050565b60006020820190508181036000830152614cbc81614774565b9050919050565b60006020820190508181036000830152614cdc81614797565b9050919050565b60006020820190508181036000830152614cfc816147ba565b9050919050565b60006020820190508181036000830152614d1c816147dd565b9050919050565b60006020820190508181036000830152614d3c81614823565b9050919050565b60006020820190508181036000830152614d5c81614846565b9050919050565b60006020820190508181036000830152614d7c81614869565b9050919050565b60006020820190508181036000830152614d9c8161488c565b9050919050565b6000602082019050614db860008301846148be565b92915050565b6000604082019050614dd360008301856148be565b614de06020830184614341565b9392505050565b600060c082019050614dfc60008301896148be565b8181036020830152614e0e8188614408565b9050614e1d60408301876148be565b614e2a60608301866142d4565b614e3760808301856148be565b614e4460a0830184614341565b979650505050505050565b6000614e59614e6a565b9050614e6582826151c7565b919050565b6000604051905090565b600067ffffffffffffffff821115614e8f57614e8e61532e565b5b602082029050602081019050919050565b600067ffffffffffffffff821115614ebb57614eba61532e565b5b602082029050602081019050919050565b600067ffffffffffffffff821115614ee757614ee661532e565b5b614ef082615376565b9050602081019050919050565b600067ffffffffffffffff821115614f1857614f1761532e565b5b614f2182615376565b9050602081019050919050565b6000819050602082019050919050565b60008190508160005260206000209050919050565b600081519050919050565b600081519050919050565b600081519050919050565b6000602082019050919050565b600082825260208201905092915050565b600082825260208201905092915050565b600081905092915050565b600082825260208201905092915050565b600081905092915050565b6000614fd582615149565b9150614fe083615149565b9250827fffffffffffffffffffffffffffffffffffffffffffffffffffffffffffffffff0382111561501557615014615272565b5b828201905092915050565b600061502b82615149565b915061503683615149565b925082615046576150456152a1565b5b828204905092915050565b600061505c82615149565b915061506783615149565b9250817fffffffffffffffffffffffffffffffffffffffffffffffffffffffffffffffff04831182151516156150a05761509f615272565b5b828202905092915050565b60006150b682615149565b91506150c183615149565b9250828210156150d4576150d3615272565b5b828203905092915050565b60006150ea82615129565b9050919050565b60008115159050919050565b60007fffffffff0000000000000000000000000000000000000000000000000000000082169050919050565b600073ffffffffffffffffffffffffffffffffffffffff82169050919050565b6000819050919050565b82818337600083830152505050565b60005b83811015615180578082015181840152602081019050615165565b8381111561518f576000848401525b50505050565b600060028204905060018216806151ad57607f821691505b602082108114156151c1576151c06152d0565b5b50919050565b6151d082615376565b810181811067ffffffffffffffff821117156151ef576151ee61532e565b5b80604052505050565b600061520382615149565b91507fffffffffffffffffffffffffffffffffffffffffffffffffffffffffffffffff82141561523657615235615272565b5b600182019050919050565b600061524c82615149565b915061525783615149565b925082615267576152666152a1565b5b828206905092915050565b7f4e487b7100000000000000000000000000000000000000000000000000000000600052601160045260246000fd5b7f4e487b7100000000000000000000000000000000000000000000000000000000600052601260045260246000fd5b7f4e487b7100000000000000000000000000000000000000000000000000000000600052602260045260246000fd5b7f4e487b7100000000000000000000000000000000000000000000000000000000600052603260045260246000fd5b7f4e487b7100000000000000000000000000000000000000000000000000000000600052604160045260246000fd5b600080fd5b600080fd5b600080fd5b600080fd5b600080fd5b6000601f19601f8301169050919050565b7f4e6f74206f776e6572206f662074686973204e46540000000000000000000000600082015250565b7f4552433732313a207472616e7366657220746f206e6f6e20455243373231526560008201527f63656976657220696d706c656d656e7465720000000000000000000000000000602082015250565b7f4f776e61626c653a206e6577206f776e657220697320746865207a65726f206160008201527f6464726573730000000000000000000000000000000000000000000000000000602082015250565b7f4552433732313a20746f6b656e20616c7265616479206d696e74656400000000600082015250565b7f4e4654206e6f7420756e69717565000000000000000000000000000000000000600082015250565b7f5061796d656e7420746f2041646d696e20756e7375636365737366756c000000600082015250565b7f57686974654c697374656420616c726561647920757365642062617463684d6960008201527f6e7420322074696d657320616e64206974206973207374696c6c20507265536160208201527f6c6520506572696f640000000000000000000000000000000000000000000000604082015250565b7f43616e74206d696e74206d6f7265207468616e20537570706c79204c65667400600082015250565b7f4552433732313a207472616e7366657220746f20746865207a65726f2061646460008201527f7265737300000000000000000000000000000000000000000000000000000000602082015250565b7f4552433732313a20617070726f766520746f2063616c6c657200000000000000600082015250565b7f5061796d656e7420756e7375636365737366756c000000000000000000000000600082015250565b7f4552433732313a206f70657261746f7220717565727920666f72206e6f6e657860008201527f697374656e7420746f6b656e0000000000000000000000000000000000000000602082015250565b7f4552433732313a20617070726f76652063616c6c6572206973206e6f74206f7760008201527f6e6572206e6f7220617070726f76656420666f7220616c6c0000000000000000602082015250565b7f494420646f6573206e6f74206578697374000000000000000000000000000000600082015250565b7f4552433732313a2062616c616e636520717565727920666f7220746865207a6560008201527f726f206164647265737300000000000000000000000000000000000000000000602082015250565b7f4552433732313a206f776e657220717565727920666f72206e6f6e657869737460008201527f656e7420746f6b656e0000000000000000000000000000000000000000000000602082015250565b7f45524337323155524953746f726167653a2055524920736574206f66206e6f6e60008201527f6578697374656e7420746f6b656e000000000000000000000000000000000000602082015250565b7f53656e74206c657373207468616e207072696365000000000000000000000000600082015250565b7f50726553616c65206973204f4e2c206e6f6e2d77686974652d6c69737420636160008201527f6e6e6f74206d696e740000000000000000000000000000000000000000000000602082015250565b7f4552433732313a206d696e7420746f20746865207a65726f2061646472657373600082015250565b7f45524337323155524953746f726167653a2055524920717565727920666f722060008201527f6e6f6e6578697374656e7420746f6b656e000000000000000000000000000000602082015250565b7f4552433732313a20617070726f76656420717565727920666f72206e6f6e657860008201527f697374656e7420746f6b656e0000000000000000000000000000000000000000602082015250565b7f4f776e61626c653a2063616c6c6572206973206e6f7420746865206f776e6572600082015250565b7f4552433732313a207472616e73666572206f6620746f6b656e2074686174206960008201527f73206e6f74206f776e0000000000000000000000000000000000000000000000602082015250565b7f4552433732314d657461646174613a2055524920717565727920666f72206e6f60008201527f6e6578697374656e7420746f6b656e0000000000000000000000000000000000602082015250565b7f4552433732313a20617070726f76616c20746f2063757272656e74206f776e6560008201527f7200000000000000000000000000000000000000000000000000000000000000602082015250565b50565b7f4552433732313a207472616e736665722063616c6c6572206973206e6f74206f60008201527f776e6572206e6f7220617070726f766564000000000000000000000000000000602082015250565b7f4e6f7420616e2041646d696e0000000000000000000000000000000000000000600082015250565b7f4552433732314275726e61626c653a2063616c6c6572206973206e6f74206f7760008201527f6e6572206e6f7220617070726f76656400000000000000000000000000000000602082015250565b7f43616e206e6f74206d696e7420666f72207468616e203130204e465473000000600082015250565b615b0d816150df565b8114615b1857600080fd5b50565b615b24816150f1565b8114615b2f57600080fd5b50565b615b3b816150fd565b8114615b4657600080fd5b50565b615b5281615149565b8114615b5d57600080fd5b5056fea2646970667358221220b8073abd4cd734dc4148fdb1f56998645723f3a459b5f9c461cc54c8b5d7f33064736f6c6343000807003368747470733a2f2f647765622e6c696e6b2f697066732f626166796265696169676133747835726576656f68616f736635357637696c71356e706778346b6d64347537673762336d6668686b737272336571",
  "immutableReferences": {},
  "source": "// SPDX-License-Identifier: MIT\npragma solidity 0.8.7;\nimport \"@openzeppelin/contracts/token/ERC721/ERC721.sol\";\nimport \"@openzeppelin/contracts/token/ERC721/extensions/ERC721URIStorage.sol\";\nimport \"@openzeppelin/contracts/token/ERC721/extensions/ERC721Burnable.sol\";\nimport \"@openzeppelin/contracts/access/Ownable.sol\";\nimport \"@openzeppelin/contracts/utils/Counters.sol\";\n\n// (Done) Add admin in contract and transfer the share on minting, add royalty as variables and admin can set it.\n// (Done) Make the minting function payable\n// (Done) Make the contract ownable\n\n// (Done) Add Buy and Sell.\n// Add the proxy as well.\n\n// (Done) Add setAdmin and getAdmin functions, only owner can set it.\n// (Done) Add setprice and getprice functions in contract, set the modifier to onlyowner or admin\n// (Done) Add a mapping for prices tokenids=> prices\n// (Done) Set the price of each NFT while minting\n\n\ncontract CryptoPanda is ERC721, ERC721URIStorage, ERC721Burnable, Ownable {\n    using Counters for Counters.Counter;\n    Counters.Counter public _tokenIdCounter;\n    \n    // BLACKPANDAURI URI\n    string private _blackPandaURI;\n\n\n    address private admin;\n    address private contractAddress;\n\n    bool private preSaleIsON; // Turn pre-sale on and off\n    bool private lengendaryPandaMinted; // Check to mint legendary panda once\n\n    string private lengendaryURI ; // URI for legendary panda\n\n\n    uint256 public maxSupply; // max NFT can be minted\n    \n    uint256 public _mintPrice; // initail price to mint NFT\n\n    uint256 public _whitelist_mintPrice; // initail price to mint NFT\n\n\n    uint256 private royalty;  \n    uint256[] private mintedNFT ; // List of NFT ids minted\n\n    mapping (bytes32 => bool ) private NFT_hashes ; // checks URI uniqueness\n    mapping (uint256 => pandaStruct) public pandaList ; // List of NFT data, pass tokenID of NFT as @param\n    mapping (uint256 => uint256 ) public NFT_Price_List ; // List of NFT prices, pass tokenID of NFT as @param\n    mapping (address => bool ) private isWhiteList; // List of whitelisted addresses\n    mapping (address => uint256 ) private addressMintCount ; // Count of NFTs minted by address\n    mapping (address => uint256 ) private batchMintCalled ; // Count of batchMint func called by whitelisted address\n    mapping (uint256 => string) private _tokenURIs;   // To save the actual token URIs\n \n\n\n    struct pandaStruct {\n        uint256 id;\n        string uri;\n        uint price;\n        address owner;\n        uint256 mintTime;\n        bool preSale;\n    }\n\n    event TokenMinted( uint256 indexed tokenId, address owner);\n    event priceSetEvent ( uint ID , bool price_is_set );\n    event payment_Sent(bool payment_Sent);\n\n    \n\n     modifier onlyAdmin {\n      require(msg.sender == admin, \"Not an Admin\");\n      _;\n    }\n\n\n\n     constructor(\n         string memory _contractName, \n         string memory _contractSymbol, \n         uint256 _nftMintPrice, \n         uint256 _whiteListPrice, \n         uint256 _royality \n        ) \n     ERC721(_contractName,_contractSymbol)\n     {\n\n         contractAddress = address(this) ;\n         _mintPrice = _nftMintPrice;\n         _whitelist_mintPrice = _whiteListPrice;\n         royalty = _royality;\n         lengendaryPandaMinted = false;\n         maxSupply = 8008;\n         _blackPandaURI = \"https://dweb.link/ipfs/bafybeiaiga3tx5reveohaosf55v7ilq5npgx4kmd4u7g7b3mfhhksrr3eq\";\n\n         setAdmin( owner() );\n         addWhiteList ( msg.sender );\n\n     }\n\n    function setLegendaryPandaURI( string memory temp) public onlyAdmin {\n        lengendaryURI = temp ;\n    }\n\n    function setPreSaleStatus (bool _t) public onlyAdmin {\n        preSaleIsON = _t;\n    }\n\n    function getContractBalance() public view returns( uint256 ){\n        return address(this).balance;\n    }\n    \n    function setAdmin (address _admin) public onlyOwner {\n        admin = _admin;\n    }\n\n    function getAdmin ()  public view onlyOwner returns (address) {\n       return admin ;\n    }\n\n    function getRoyaltyValue ( ) public view onlyAdmin returns (uint256) {\n        return royalty;\n    }\n\n\n    function getMintedList() public view returns (uint256[] memory minted_nft_ids ){\n        return mintedNFT;\n    }\n\n    \n    function addWhiteList(address id) public onlyAdmin {\n        isWhiteList[id] = true ;\n    }\n\n    function removeWhiteList(address id) public onlyAdmin {\n        isWhiteList[id] = false ;\n    }\n\n    function sendContractBalance(address _to) public onlyAdmin {\n        (bool sent,) = _to.call{value: address(this).balance }(\"\");\n        require(sent == true, \"Payment unsuccessful\");\n        emit payment_Sent(sent);\n    }\n\n    function setNFTprice( uint256 _tokenId, uint _price) public  {\n             require(_exists(_tokenId) == true, \"ID does not exist\" );\n             require( pandaList[_tokenId].owner == msg.sender, \"Not owner of this NFT\");\n             pandaList[_tokenId].price = _price;\n             emit priceSetEvent( _tokenId , true );\n    }\n\n    function getNFTprice( uint256 _tokenId) public view returns (uint256) {\n             require(_exists(_tokenId)== true, \"ID does not exist\" );\n             return pandaList[_tokenId].price;\n    }\n\n    function safeMint ( address to, string memory tokenUri) private returns (uint256) \n    {\n        _tokenIdCounter.increment();\n        _safeMint(to, _tokenIdCounter.current());\n        _setTokenURI(_tokenIdCounter.current(), _blackPandaURI); // BLACKPANDAURI\n        _tokenURIs[_tokenIdCounter.current()] = tokenUri;\n        emit TokenMinted(_tokenIdCounter.current(), to); \n        return _tokenIdCounter.current();\n    }\n\n    function setTokenURI(uint256 tokenId) external { \n        require(_exists(tokenId) == true, \"ID does not exist\" );\n        _setTokenURI(tokenId, _tokenURIs[tokenId]);\n    }\n\n    function setTokensURI(uint256 [] memory tokenIds) external { \n        for (uint i=0; i < tokenIds.length; i++){\n            require(_exists(tokenIds[i]) == true, \"ID does not exist\" );\n            _setTokenURI(tokenIds[i], _tokenURIs[tokenIds[i]]);\n        }\n    }\n\n  \n    function batchMint( string[] memory tokenUriList) public payable returns (uint256 [] memory )\n    {\n        require ( tokenUriList.length <= 10 , \"Can not mint for than 10 NFTs\" ) ;\n        uint256 mintPrice = _mintPrice ;\n\n        if ( isWhiteList[ msg.sender ] == true){\n            mintPrice = _whitelist_mintPrice;\n\n            if ( preSaleIsON == true) {\n                batchMintCalled[msg.sender] += 1 ;\n                require( batchMintCalled[msg.sender] <=2 , \"WhiteListed already used batchMint 2 times and it is still PreSale Period\") ; \n            }\n        }\n\n        if ( isWhiteList[ msg.sender ] == false)\n        {\n            require ( preSaleIsON == false, \"PreSale is ON, non-white-list cannot mint\");\n        }\n\n        uint256 supplyLeft = maxSupply -  _tokenIdCounter.current();\n        uint256[] memory tokenIds = new uint256[](tokenUriList.length);\n\n        require( msg.value >= mintPrice*tokenUriList.length , \"Sent less than price\") ; \n        require(tokenUriList.length <= supplyLeft ,\"Cant mint more than Supply Left\");\n\n        for (uint256 i = 0; i < tokenUriList.length; i++) \n        {\n            require(UniqueSVG_by_Hash(bytes(tokenUriList[i])) == true, \"NFT not unique\"); \n            NFT_hashes[keccak256(bytes(tokenUriList[i]))] = true;\n\n            uint256 tokenId = safeMint( msg.sender, tokenUriList[i] );\n            mintedNFT.push(tokenId);\n            tokenIds[i] = tokenId;\n\n            pandaList[tokenId].id = tokenId;\n            pandaList[tokenId].price = mintPrice;\n            pandaList[tokenId].uri = tokenUriList[i];\n            pandaList[tokenId].owner = msg.sender;\n            pandaList[tokenId].mintTime = block.timestamp;\n            NFT_Price_List[tokenId] = mintPrice;\n\n        }\n        uint256 to_send_royalty = msg.value;\n\n        (bool sent,) = admin.call{value: to_send_royalty}(\"\");\n        require(sent == true, \"Payment to Admin unsuccessful\");\n        emit payment_Sent(sent);\n\n        addressMintCount[msg.sender] += tokenUriList.length ;\n\n        if (lengendaryPandaMinted == false) {\n            if (addressMintCount[msg.sender] >= 6000 ){\n                legendaryMint ( msg.sender ) ;\n                lengendaryPandaMinted = true;\n            }\n        }\n        return tokenIds;\n    }\n\n    function legendaryMint (address _sender ) private {\n\n        require(UniqueSVG_by_Hash(bytes(lengendaryURI)) == true, \"NFT not unique\"); \n        NFT_hashes[keccak256(bytes(lengendaryURI))] = true;\n\n        uint256 tokenId = safeMint( msg.sender, lengendaryURI );\n        mintedNFT.push(tokenId);\n\n        pandaList[tokenId].id = tokenId;\n        pandaList[tokenId].price = _mintPrice;\n        pandaList[tokenId].uri = lengendaryURI;\n        pandaList[tokenId].owner = _sender;\n        pandaList[tokenId].mintTime = block.timestamp;\n        NFT_Price_List[tokenId] = _mintPrice;\n        addressMintCount[_sender] += 1 ;\n\n    }\n\n\n\n\n    function transferNFT( address _from, address _to, uint256 _id ) internal {\n            this.safeTransferFrom( _from  , _to , _id );\n    }\n\n\n\n\n    function _burn(uint256 tokenId) internal override(ERC721, ERC721URIStorage)\n    {\n        super._burn(tokenId);\n    }\n\n    function tokenURI(uint256 tokenId) public view override(ERC721, ERC721URIStorage) returns (string memory)\n    {\n        return super.tokenURI(tokenId);\n    }\n\n\n     /*  \n    * checks if NFT tokenURI to be added is unique or not \n    *\n    * @param _tokenURI  -- URI to be checked for uniqueness\n    */\n    function UniqueSVG_by_Hash(bytes memory _tokenURI ) private view returns (bool) {\n        \n        if (NFT_hashes[keccak256(_tokenURI)] == true){\n            return false;\n        }else{\n            return true;\n        }\n   }\n\n\n}\n",
  "sourcePath": "/Users/tania/Documents/Cryptowolves/contracts/CryptoPanda.sol",
  "compiler": {
    "name": "solc",
    "version": "0.8.7+commit.e28d00a7.Emscripten.clang"
  },
  "schemaVersion": "3.4.3",
  "updatedAt": "2022-01-19T17:52:46.497Z",
  "devdoc": {
    "kind": "dev",
    "methods": {
      "approve(address,uint256)": {
        "details": "See {IERC721-approve}."
      },
      "balanceOf(address)": {
        "details": "See {IERC721-balanceOf}."
      },
      "burn(uint256)": {
        "details": "Burns `tokenId`. See {ERC721-_burn}. Requirements: - The caller must own `tokenId` or be an approved operator."
      },
      "getApproved(uint256)": {
        "details": "See {IERC721-getApproved}."
      },
      "isApprovedForAll(address,address)": {
        "details": "See {IERC721-isApprovedForAll}."
      },
      "name()": {
        "details": "See {IERC721Metadata-name}."
      },
      "owner()": {
        "details": "Returns the address of the current owner."
      },
      "ownerOf(uint256)": {
        "details": "See {IERC721-ownerOf}."
      },
      "renounceOwnership()": {
        "details": "Leaves the contract without owner. It will not be possible to call `onlyOwner` functions anymore. Can only be called by the current owner. NOTE: Renouncing ownership will leave the contract without an owner, thereby removing any functionality that is only available to the owner."
      },
      "safeTransferFrom(address,address,uint256)": {
        "details": "See {IERC721-safeTransferFrom}."
      },
      "safeTransferFrom(address,address,uint256,bytes)": {
        "details": "See {IERC721-safeTransferFrom}."
      },
      "setApprovalForAll(address,bool)": {
        "details": "See {IERC721-setApprovalForAll}."
      },
      "supportsInterface(bytes4)": {
        "details": "See {IERC165-supportsInterface}."
      },
      "symbol()": {
        "details": "See {IERC721Metadata-symbol}."
      },
      "transferFrom(address,address,uint256)": {
        "details": "See {IERC721-transferFrom}."
      },
      "transferOwnership(address)": {
        "details": "Transfers ownership of the contract to a new account (`newOwner`). Can only be called by the current owner."
      }
    },
    "version": 1
  },
  "userdoc": {
    "kind": "user",
    "methods": {},
    "version": 1
  }
}